{
  "contractName": "RecordContract",
  "abi": [
    {
      "inputs": [
        {
          "internalType": "uint256",
          "name": "",
          "type": "uint256"
        }
      ],
      "name": "records",
      "outputs": [
        {
          "internalType": "uint256",
          "name": "id",
          "type": "uint256"
        },
        {
          "internalType": "string",
          "name": "title",
          "type": "string"
        },
        {
          "internalType": "string",
          "name": "description",
          "type": "string"
        },
        {
          "internalType": "bool",
          "name": "done",
          "type": "bool"
        },
        {
          "internalType": "uint256",
          "name": "createdAt",
          "type": "uint256"
        }
      ],
      "stateMutability": "view",
      "type": "function",
      "constant": true
    },
    {
      "inputs": [],
      "name": "recordsCounter",
      "outputs": [
        {
          "internalType": "uint256",
          "name": "",
          "type": "uint256"
        }
      ],
      "stateMutability": "view",
      "type": "function",
      "constant": true
    },
    {
      "inputs": [
        {
          "internalType": "string",
          "name": "_title",
          "type": "string"
        },
        {
          "internalType": "string",
          "name": "_description",
          "type": "string"
        }
      ],
      "name": "createRecord",
      "outputs": [],
      "stateMutability": "nonpayable",
      "type": "function"
    }
  ],
  "bytecode": "0x60806040526000805534801561001457600080fd5b506107ee806100246000396000f3fe608060405234801561001057600080fd5b50600436106100415760003560e01c80633446106714610046578063c090b4df1461007a578063ca5e2d4f14610096575b600080fd5b610060600480360381019061005b9190610479565b6100b4565b604051610071959493929190610518565b60405180910390f35b610094600480360381019061008f9190610401565b610207565b005b61009e6102d3565b6040516100ab91906104fd565b60405180910390f35b60016020528060005260406000206000915090508060000154908060010180546100dd90610643565b80601f016020809104026020016040519081016040528092919081815260200182805461010990610643565b80156101565780601f1061012b57610100808354040283529160200191610156565b820191906000526020600020905b81548152906001019060200180831161013957829003601f168201915b50505050509080600201805461016b90610643565b80601f016020809104026020016040519081016040528092919081815260200182805461019790610643565b80156101e45780601f106101b9576101008083540402835291602001916101e4565b820191906000526020600020905b8154815290600101906020018083116101c757829003601f168201915b5050505050908060030160009054906101000a900460ff16908060040154905085565b6040518060a00160405280600054815260200183815260200182815260200160001515815260200142815250600160008054815260200190815260200160002060008201518160000155602082015181600101908051906020019061026d9291906102d9565b50604082015181600201908051906020019061028a9291906102d9565b5060608201518160030160006101000a81548160ff021916908315150217905550608082015181600401559050506000808154809291906102ca906106a6565b91905055505050565b60005481565b8280546102e590610643565b90600052602060002090601f016020900481019282610307576000855561034e565b82601f1061032057805160ff191683800117855561034e565b8280016001018555821561034e579182015b8281111561034d578251825591602001919060010190610332565b5b50905061035b919061035f565b5090565b5b80821115610378576000816000905550600101610360565b5090565b600061038f61038a8461059e565b610579565b9050828152602081018484840111156103ab576103aa610781565b5b6103b6848285610601565b509392505050565b600082601f8301126103d3576103d261077c565b5b81356103e384826020860161037c565b91505092915050565b6000813590506103fb816107a1565b92915050565b600080604083850312156104185761041761078b565b5b600083013567ffffffffffffffff81111561043657610435610786565b5b610442858286016103be565b925050602083013567ffffffffffffffff81111561046357610462610786565b5b61046f858286016103be565b9150509250929050565b60006020828403121561048f5761048e61078b565b5b600061049d848285016103ec565b91505092915050565b6104af816105eb565b82525050565b60006104c0826105cf565b6104ca81856105da565b93506104da818560208601610610565b6104e381610790565b840191505092915050565b6104f7816105f7565b82525050565b600060208201905061051260008301846104ee565b92915050565b600060a08201905061052d60008301886104ee565b818103602083015261053f81876104b5565b9050818103604083015261055381866104b5565b905061056260608301856104a6565b61056f60808301846104ee565b9695505050505050565b6000610583610594565b905061058f8282610675565b919050565b6000604051905090565b600067ffffffffffffffff8211156105b9576105b861074d565b5b6105c282610790565b9050602081019050919050565b600081519050919050565b600082825260208201905092915050565b60008115159050919050565b6000819050919050565b82818337600083830152505050565b60005b8381101561062e578082015181840152602081019050610613565b8381111561063d576000848401525b50505050565b6000600282049050600182168061065b57607f821691505b6020821081141561066f5761066e61071e565b5b50919050565b61067e82610790565b810181811067ffffffffffffffff8211171561069d5761069c61074d565b5b80604052505050565b60006106b1826105f7565b91507fffffffffffffffffffffffffffffffffffffffffffffffffffffffffffffffff8214156106e4576106e36106ef565b5b600182019050919050565b7f4e487b7100000000000000000000000000000000000000000000000000000000600052601160045260246000fd5b7f4e487b7100000000000000000000000000000000000000000000000000000000600052602260045260246000fd5b7f4e487b7100000000000000000000000000000000000000000000000000000000600052604160045260246000fd5b600080fd5b600080fd5b600080fd5b600080fd5b6000601f19601f8301169050919050565b6107aa816105f7565b81146107b557600080fd5b5056fea26469706673582212204fc2bd5095701e99410efcd0e0ae8339752a495c0a02cc3da6a990008459f93564736f6c63430008060033",
  "immutableReferences": {},
  "source": "// SPDX-License-Identifier: MIT\npragma solidity ^0.8.6;\n\ncontract RecordContract {\n    uint256 public recordsCounter = 0;\n\n    struct Record {\n        uint256 id;\n        string title;\n        string description;\n        bool done;\n        uint256 createdAt;\n    }\n\n    // event RecordCreated(\n    //     uint256 id,\n    //     string title,\n    //     string description,\n    //     bool done,\n    //     uint256 createdAt\n    // );\n    // event RecordToggledDone(uint256 id, bool done);\n\n    mapping(uint256 => Record) public records;\n\n    function createRecord(string memory _title, string memory _description)\n        public\n    {\n        records[recordsCounter] = Record(\n            recordsCounter,\n            _title,\n            _description,\n            false,\n            block.timestamp\n        );\n        recordsCounter++;\n    }\n}\n",
  "sourcePath": "/Users/agujex/agujex_HOME/knowledge/Blockchain/Fazt/recordsDapp/contracts/RecordContract.sol",
  "compiler": {
    "name": "solc",
    "version": "0.8.6+commit.11564f7e.Emscripten.clang"
  },
  "schemaVersion": "3.4.3",
  "updatedAt": "2021-10-01T12:58:59.390Z",
  "networkType": "ethereum",
  "devdoc": {
    "kind": "dev",
    "methods": {},
    "version": 1
  },
  "userdoc": {
    "kind": "user",
    "methods": {},
    "version": 1
  }
}